:04000000803118280B
:100008007E14803120007F08F4000B1F1328210084
:10001800911D13282000911D13288031F1207408A8
:100028002000FF007E10090080311A288131CF217D
:10003800F900F501F601F701A001A101A201A30150
:10004800A401A501A601A701A801A901AA01AB0164
:100058007E102000803130288131562180310030D7
:100068008131952180312000B0003008AD0000308A
:100078008131AE21803101308131952180312000DC
:10008800B0003008AD0001308131AE2180318B17CE
:100098000B1700308131882180312000B0003008F2
:1000A800F80001308131882180312000B00030080B
:1000B800B5000230813188218031013A031D7C2846
:1000C80078082000B0003008AC00003081311721DA
:1000D800803120003508B0003008AC000130813193
:1000E800172180312000AD0102308131AE218031ED
:1000F80020003508B000B1017808B200B301320819
:10010800B300B20130083204A80031083304A90052
:1001180028082904031D972822000C12003020000B
:10012800AC00AD009E2822000C1620002908AD0066
:100138002808AC0081313A2180311A302000B00003
:10014800F830890BA528B00BA52800004D28F10030
:10015800E228F501F50A08007908F0007008F600B1
:10016800CF287908F0007608203E860087017008BD
:1001780081000130F0007008F60708307602031C91
:10018800CF28F601CF287508003A0319B528013A97
:100198000319B028B528F50108007608203E860026
:1001A80087010108240091000130F0007008F6076B
:1001B80008307602031C0800F60108007108003AAE
:1001C8000319AD28013A0319D128033A0319C7289E
:1001D800013A0319F028F02808005530F200720897
:1001E800F3002000911124001108F2007208F300B6
:1001F8007308F2007208F700141D0929941A161FD3
:1002080007290330122901301229941A0D290030C8
:1002180012297308F2007208F90002308031AB200D
:100228002400151608002000AD00AE012D0823009B
:10023800910020002C082300930095131513151521
:1002480000308B1B01302000AE008B13553023008B
:100258009600AA309600951495183029151120009B
:100268002E0C031C8B1303188B17080020002D0875
:10027800AF002C08AE00AF36AE0CAF36AE0C2E0871
:100288002500910020002C080339AE000430AE355B
:10029800890B4B2925001308CF3920002E0425008F
:1002A800930008008131682181318131C321813176
:1002B8008131C82181318131792181318131A22176
:1002C80081318131B921080022008C010F302100D1
:1002D8008C00113023008C003F3024008C0021005A
:1002E8009513013022009D00080024009401263057
:1002F80095009601970166309300443092002000E3
:1003080091112100911508002000AD00AE012D08C3
:10031800203E860087010108AC002C08AE002E089C
:1003280008002000AC002C08230091001513951339
:100338001514000000002300130808001D302500D4
:100348009300950180309400013096003E30910072
:10035800920108002000AF002D08AE002F08203EB3
:10036800860087012E0881000800033020009C00C9
:100378007C309B009A0191108131CC2108007230A9
:100388002100990098010800163021009700080004
:0803980020001C15080055347B
:020000040001F9
:04000E00E4FFFFFF0D
:00000001FF
